S00C00004C4142322E7372656317
S113000064C1000082C1000080C100007EC1000004
S11300107CC100007AC1000083C1000076C10000E9
S113002074C1000072C1000070C100006EC1000004
S11300306CC100006AC1000068C1000066C1000014
S113004064C1000097C1000060C100005EC10000EF
S11300505CC100005AC1000058C1000056C1000034
S113006054C1000052C1000050C100004EC1000044
S11300704CC100004AC1000048C1000046C1000054
S113008044C1000042C1000040C100003EC1000064
S11300903CC100003AC1000038C1000036C1000074
S11300A034C1000032C1000030C100002EC1000084
S11300B02CC100002AC1000028C1000026C1000094
S11300C024C1000022C1000020C100001EC10000A4
S11300D01CC100001AC1000018C1000016C10000B4
S11300E014C1000012C1000010C100000EC10000C4
S11300F00CC100000AC1000008C1000006C10000D4
S113010004C1000002C1000000C10000FEC00000E4
S1130110FCC00000FAC00000F8C00000F6C00000F7
S1130120F4C00000F2C00000F0C00000EEC0000007
S1130130ECC000006202AA026A02AA02AA02100229
S11301401C0226022A0254025802AA02AA02AA0285
S1130150AA02AA02AA02AA02AA02AA02AA02AA023B
S1130160AA02AA02AA02AA02AA02AA02AA02AA022B
S1130170AA02AA02AA02AA02AA02AA02AA02AA021B
S1130180AA02AA02AA02AA02AA02AA02AA02AA020B
S1130190AA02AA02AA02AA02AA02AA02AA02AA02FB
S11301A0AA02AA02AA02AA02AA02AA02AA02AA02EB
S11301B0AA02AA02AA028D02AA02AA02AA02AA02F8
S11301C0AA02AA02AA0273026E616E00696E660038
S11301D000407A10F35A00A0724E18090010A5D4FA
S11301E0E80000E87648170000E40B54020000CA57
S11301F09A3B000000E1F50500008096980000009D
S113020040420F000000A0860100000010270000FB
S11302100000E803000000006400000000000A0081
S1130220000000000100000000002C76D888DC6784
S11302304F0823DFC1DFAE59E1B1B796E5E3E453DC
S1130240C63AE651997696E8E6C28426EB898C9BF9
S113025062ED407C6FFCEFBC9C9F40F2BAA56FA599
S1130260F490055A2AF75C936B6CF9676DC11BFC1B
S1130270E0E40D47FEF520E6B500D0ED902E030036
S1130280943577050080841E080000204E0A000083
S113029000C80C333333330F986E12831141EF8D42
S11302A02114893BE65516CFFEE6DB18D1844B3882
S11302B01BF77C1D901DA4BBE424203284725E22B3
S11302C08100C9F124ECA1E53D2711241FBECFEF25
S11302D0D1E8DEBFCDBF00E00CBF14E0A0E0B2E087
S11302E0E8EEF5E100E00BBF02C007900D92A631E5
S11302F0B107D9F724E0A6E1B4E001C01D92AC3106
S1130300B207E1F763D00C94F20A7ACE80E096E962
S113031093D280E092E09093190480931804089596
S11303201F920F920FB60F9211240BB60F922F93B8
S11303303F934F935F936F937F938F939F93AF9369
S1130340BF93EF93FF93659902C081E387D2FF9136
S1130350EF91BF91AF919F918F917F916F915F9139
S11303604F913F912F910F900BBE0F900FBE0F90A6
S11303701F9018951F920F920FB60F9211240F9091
S11303800FBE0F901F9018958EE092E06ED28AE116
S113039092E06BD285E392E068D280E592E065D288
S11303A08AE692E062D28FE792E05FD283E992E03C
S11303B05CD285EB92E059D287ED92E056D28EEF73
S11303C092E053D28BE293E050C20895CF92DF9231
S11303D0EF92FF920F931F93CF93DF93CDB7DEB7C6
S11303E06E970FB6F894DEBF0FBECDBF8FDF0DD171
S11303F084B1806184B982E3FBD102E3EE24E39407
S1130400F12CABC0C1DF41D290E0FC01BB97EA34D0
S1130410F10508F09FC08827E656FF4F8F4FEEC6C0
S113042088E393E022D2E12CF12C97C0812F16D2DD
S113043080E214D21F5F01C011E61B37B8F38DC0F0
S1130440812F0CD280E20AD21F5F01C011E41B3558
S1130450B8F383C080E493E008D284B1806484B9A3
S113046020E030E01AC085B1806485B94FEF84E3A1
S11304709CE0415080409040E1F700C0000085B10D
S11304808F7B85B94FEF84E39CE0415080409040DE
S1130490E1F700C000002F5F3F4F233031051CF30C
S11304A084B18F7B84B959C084E593E0DED155C013
S11304B084B1806284B989E593E0D7D180EA97E07A
S11304C077D14BC001110A50802F92D189E693E075
S11304D0CCD143C0043608F4065F802F89D187E865
S11304E093E0C3D13AC0DBD083E0DBD00ED19F933D
S11304F08F937F936F9385EA93E09F938F93CE01BD
S113050001966C019F938F93E1D7C601AED10FB6CC
S1130510F894DEBF0FBECDBF20C061E080E432D0CE
S113052083E04CD0182FD92E6AD0DF921F938CEB26
S113053093E09F938F93CE0101966C019F938F93C9
S1130540C5D7C60192D10F900F900F900F900F90C6
S11305500F9003C080ED93E088D1E114F10409F019
S113056051CF80E090E06E960FB6F894DEBF0FBED8
S1130570CDBFDF91CF911F910F91FF90EF90DF904E
S1130580CF900895ACE7B0E01C92EAE7F0E0108267
S11305909081892B80838C9190E4699FB001112410
S11305A0682B6C9380818068808380917B00882392
S11305B0E4F780917B0085FFFCCF0895ECE7F0E041
S11305C09081907E9083ABE7B0E09C91977F9C9361
S11305D09081892B8083EAE7F0E0808180648083C6
S11305E080917A0086FDFCCF2091780030917900CB
S11305F0EAE7F0E0908190619083C9010895EAE709
S1130600F0E080818F77808308958DB18F7D8DB9DF
S11306108EB180628EB9EAE6F0E0808188608083E2
S113062080818B7F80838DB380628DBB78940895A5
S11306301092B90082E08093B80084E08093BC00FB
S1130640089584EA8093BC008091BC008823E4F779
S1130650089584E98093BC0008958093BB0084E8E6
S11306608093BC008091BC008823E4F7089584EC57
S11306708093BC008091BC008823E4F78091BB0088
S1130680089584E88093BC008091BC008823E4F73B
S11306908091BB0008958091B900887F0895C8CFE8
S11306A00895CF93DF9390E2899FE0011124C9DF7D
S11306B086E9D3DFF0DF883129F08FED93E0D5D0E0
S11306C080E020C081E0C9DFE6DF883229F08AEECD
S11306D093E0CBD080E016C08D2FBFDFDCDF883203
S11306E029F08AEE93E0C1D080E00CC08C2FB5DFF6
S11306F0D2DF883229F08AEE93E0B7D080E002C0DE
S1130700A8DF81E0DF91CF910895CF93DF9300D0EC
S11307101F92CDB7DEB795DF86E99FDFBCDF883156
S113072019F08FED93E0A1D080E097DFB4DF883239
S113073019F08AEE93E099D08CDF83DFACDF883048
S113074019F08FED93E091D087E987DFA4DF80343F
S113075019F085EF93E089D08ADF89839CDF8035A7
S113076019F080E094E081D08CDF8A8394DF8835AF
S113077019F08BE094E079D06CDF898190E0982FB8
S113078088272A81822B9C838B836B817C81072E13
S1130790000C880B990B8BD020E030E040E85BE341
S11307A0C1D00F900F900F900F90DF91CF910895CB
S11307B0CF93DF93F894A0E8B0E01C92E1E8F0E076
S11307C01082CFE6D0E0188290938900809388004D
S11307D08081886080838081856080838881826055
S11307E088838C9180648C937894DF91CF91089561
S11307F0CF93DF93F894E0EBF0E01082C1EBD0E00C
S11308001882109270002FEF829FC001112464E6B9
S113081070E0C5D46093B30080818260808380815E
S113082081608083888185608883808180688083FB
S11308307894DF91CF9108959C0140E050E060E20C
S113084071EA87E090E0BED4215031093093CD00A5
S11308502093CC0088E18093C90008959091C8004A
S113086095FFFCCF8093CE000895CF93DF93EC01E6
S11308708091C80085FFFCCF02C0F0DF21968881FB
S11308808111FBCFDF91CF9108958091C800882317
S1130890E4F78091CE0008959091C80095FFFCCFB5
S11308A08093CE0080E090E00895E89409C097FB1F
S11308B03EF490958095709561957F4F8F4F9F4F33
S11308C09923A9F0F92F96E9BB279395F695879577
S11308D077956795B795F111F8CFFAF4BB0F11F43A
S11308E060FF1BC06F5F7F4F8F4F9F4F16C08823E1
S11308F011F096E911C0772321F09EE8872F762F17
S113090005C0662371F096E8862F70E060E02AF057
S11309109A95660F771F881FDAF7880F9695879543
S113092097F908950BD078C069D028F06ED018F0EC
S1130930952309F05AC05FC01124A2C07ED0A0F351
S1130940959FD1F3950F50E0551F629FF001729F60
S1130950BB27F00DB11D639FAA27F00DB11DAA1F7F
S1130960649F6627B00DA11D661F829F2227B00DCC
S1130970A11D621F739FB00DA11D621F839FA00D57
S1130980611D221F749F3327A00D611D231F849FA7
S1130990600D211D822F762F6A2F11249F575040FE
S11309A08AF0E1F088234AF0EE0FFF1FBB1F661F99
S11309B0771F881F91505040A9F79E3F510570F052
S11309C014C05EC05F3FECF3983EDCF386957795E8
S11309D06795B795F795E7959F5FC1F7FE2B880F4D
S11309E0911D9695879597F9089597F99F6780E8E3
S11309F070E060E008959FEF80EC089500240A946D
S1130A001616170618060906089500240A941216E5
S1130A101306140605060895092E0394000C11F418
S1130A20882352F0BB0F40F4BF2B11F460FF04C0C5
S1130A306F5F7F4F8F4F9F4F089557FD9058440F1E
S1130A40551F59F05F3F71F04795880F97FB991F29
S1130A5061F09F3F79F087950895121613061406E6
S1130A60551FF2CF4695F1DF08C016161706180673
S1130A70991FF1CF86957105610508940895E8944E
S1130A80BB2766277727CB0197F908952F923F92CA
S1130A904F925F926F927F928F929F92AF92BF928A
S1130AA0CF92DF92EF92FF920F931F93CF93DF9336
S1130AB0CDB7DEB760970FB6F894DEBF0FBECDBFDB
S1130AC07C011B016A01FC0117821682838181FF6C
S1130AD02AC39E012F5F3F4F3901F7019381F10132
S1130AE093FD859193FF81911F01882309F417C316
S1130AF0853239F493FD859193FF81911F018532ED
S1130B0031F4B70190E0A6D456016501E6CF10E0B8
S1130B10512C912CFFE1F915D8F08B3279F038F48F
S1130B20803279F08332A1F4F92DF0612EC08D3238
S1130B3061F0803369F4292D21602DC0392D326094
S1130B40932E892D8460982E2AC0E92DE86015C063
S1130B5097FC2DC020ED280F2A3088F496FE06C09D
S1130B603AE0139F200D1124122F19C08AE0589ED9
S1130B70200D1124522EE92DE0629E2E10C08E32DB
S1130B8031F496FCCCC2F92DF0649F2E08C08C364B
S1130B9021F4292D2068922E02C0883641F4F101F7
S1130BA093FD859193FF81911F018111B3CF9BEB3D
S1130BB0980F933020F4992D9061805E07C09BE9D3
S1130BC0980F933008F059C1992D9F7E96FF16E037
S1130BD09F73992E853619F49064992E08C0863631
S1130BE021F4392F3068932E02C01111115097FE51
S1130BF007C01C3350F444244394410E27E00BC037
S1130C00183038F027E017E005C027E09CE3492EB0
S1130C1002C0212F412C560184E0A80EB11CF6011C
S1130C206081718182819381042DA30125D36C019C
S1130C30F981FC87F0FF02C0F3FF06C091FC06C0F7
S1130C4092FE06C000E205C00DE203C00BE201C043
S1130C5000E08C858C7019F0011143C280C297FEAC
S1130C6010C04C0CFC85F4FF04C08A81813309F464
S1130C704A94141474F528E0241578F588E0482E75
S1130C802CC096FC2AC0812F90E08C159D059CF009
S1130C903CEFC3163FEFD30674F0892D8068982E7D
S1130CA00AC0E2E0F0E0EC0FFD1FE10FF11D8081CE
S1130CB0803319F411501111F4CF97FE0EC044245F
S1130CC04394410E812F90E0C816D9062CF41C19C8
S1130CD004C04424439401C010E097FE06C01C14D1
S1130CE01D0434F4C601019605C085E090E002C0FD
S1130CF081E090E001110196112331F0212F30E0C1
S1130D002F5F3F4F820F931F252D30E082179307EB
S1130D1014F4581A01C0512C892D897041F45520BE
S1130D2031F0B70180E290E095D35A94F8CF0023D4
S1130D3021F0B701802F90E08DD393FC08C055209B
S1130D4031F0B70180E390E085D35A94F8CF97FE51
S1130D504AC04601D7FE02C0812C912CC6018819D5
S1130D609909F301E80FF91FFE87ED87960124190D
S1130D703109388B2F87012F10E011950195110946
S1130D803FEF8316930621F4B7018EE290E062D31D
S1130D90C814D9044CF08F8598898815990524F4D2
S1130DA0ED85FE85818101C080E3F1E08F1A910811
S1130DB02D853E852F5F3F4F3E872D8780169106F8
S1130DC024F0B70190E046D3DBCFC814D90441F432
S1130DD09A81963320F4953319F43C8534FF81E3EA
S1130DE0B70190E048C08A81813319F09C859F7EC9
S1130DF09C87B70190E02ED3111105C094FC16C056
S1130E0085E690E015C0B7018EE290E023D31E5F23
S1130E1082E001E0080FF301E80FF11D8081B701C2
S1130E2090E018D3802F0113F4CFE8CF85E490E04D
S1130E30B70110D3D7FC06C0C114D10441F4EC852A
S1130E40E4FF05C0D194C194D1088DE201C08BE2C6
S1130E50B70190E0FFD280E32AE0C216D1042CF05F
S1130E608F5FFAE0CF1AD108F7CFB70190E0F2D242
S1130E70B701C601C096EED249C1833631F083373B
S1130E8079F0833509F052C01FC0560132E0A30E39
S1130E90B11CF6018081898301E010E0630111C077
S1130EA05601F2E0AF0EB11CF601C080D18096FE6F
S1130EB003C0612F70E002C06FEF7FEFC601BFD2A5
S1130EC08C01F92DFF7713C0560122E0A20EB11C4C
S1130ED0F601C080D18096FE03C0612F70E002C08D
S1130EE06FEF7FEFC601A0D28C01F92DF0689F2E21
S1130EF0F3FD18C0852D90E00817190798F4B70181
S1130F0080E290E0A7D25A94F5CFF60197FC859140
S1130F1097FE81916F01B70190E09CD251105A94D1
S1130F20015011090115110581F7F0C0843611F043
S1130F30893659F5560197FE09C024E0A20EB11C6A
S1130F40F60160817181828193810AC0F2E0AF0E63
S1130F50B11CF60160817181072E000C880B990B7E
S1130F60F92DFF769F2E97FF09C090958095709577
S1130F7061957F4F8F4F9F4FF0689F2E2AE030E09E
S1130F80A301D2D2C82EC6183EC0092D853721F43C
S1130F900F7E2AE030E01DC0097F8F3691F018F4EF
S1130FA0883559F0BCC0803719F0883711F0B7C0C4
S1130FB0006104FF09C0046007C094FE08C0066015
S1130FC006C028E030E005C020E130E002C020E1A6
S1130FD032E0560107FF09C084E0A80EB11CF601F7
S1130FE0608171818281938108C0F2E0AF0EB11CEF
S1130FF0F6016081718180E090E0A30195D2C82E52
S1131000C6180F77902E96FE0BC0092D0E7FC116C1
S113101050F494FE0AC092FC08C0092D0E7E05C04F
S1131020DC2C092D03C0DC2C01C0D12E04FF0DC023
S1131030FE01EC0DF11D8081803311F4097E09C09D
S113104002FF06C0D394D39404C0802F867809F09D
S1131050D39403FD10C000FF06C01C2DD51478F4F2
S1131060150D1D190CC0D51450F4B70180E290E0A1
S1131070F1D1D394F8CFD51410F45D1801C0512CDC
S113108004FF0FC0B70180E390E0E4D102FF16C073
S113109001FD03C088E790E002C088E590E0B70155
S11310A00CC0802F867851F001FF02C08BE201C092
S11310B080E207FD8DE2B70190E0CCD1C11630F497
S11310C0B70180E390E0C6D11150F8CFCA94F30180
S11310D0EC0DF11D8081B70190E0BCD1C110F6CFB9
S11310E015C0F4E0F51550F584E0581A93FE1EC0BF
S11310F0011125C02C8523FF27C008EC11E0392DF0
S11311003071932EF8018491811121C0552009F486
S1131110FCCCB70180E290E09DD15A94F7CFF7015F
S11311208681978123C08FEF9FEF20C0B70180E2B3
S113113090E090D15A945110F9CFDACF512CB701E5
S1131140802F90E087D1D6CF0CEC11E0D8CF91104E
S11311508052B70190E07ED10F5F1F4FD3CF23E0C1
S1131160251510F483E0C1CF512CC4CF60960FB67F
S1131170F894DEBF0FBECDBFDF91CF911F910F91C9
S1131180FF90EF90DF90CF90BF90AF909F908F90A3
S11311907F906F905F904F903F902F90089597FBB2
S11311A0072E16F4009406D077FD08D02FD007FC44
S11311B005D03EF4909581959F4F08957095619563
S11311C07F4F0895052E97FB16F400940FD057FD1A
S11311D005D030D007FC02D046F408C050954095A5
S11311E0309521953F4F4F4F5F4F089590958095CF
S11311F0709561957F4F8F4F9F4F0895EE0FFF1F9E
S1131200881F8BBF0790F691E02D1994AA1BBB1B76
S113121051E107C0AA1FBB1FA617B70710F0A61BF2
S1131220B70B881F991F5A95A9F780959095BC0113
S1131230CD010895A1E21A2EAA1BBB1BFD010DC00E
S1131240AA1FBB1FEE1FFF1FA217B307E407F50772
S113125020F0A21BB30BE40BF50B661F771F881F4E
S1131260991F1A9469F760957095809590959B01E4
S1131270AC01BD01CF010895283008F027E03327E1
S1131280DA01990F311D87FD9160009661057105A2
S113129039F432602E5F3D9330E32A95E1F70895E7
S11312A09F3F30F080387105610509F03C5F3C5F79
S11312B03D93913008F08068911DDF93CF931F9385
S11312C00F93FF92EF92192F987F9695E92F969599
S11312D09695E90FFF27E65DFD4F99273327EE2406
S11312E0FF24A701E70105900894079428F4360F1A
S11312F0E71EF81E491F511D660F771F881F991F8F
S11313000694A1F70590079428F4E70EF81E491FE8
S1131310561FC11D770F881F991F661F0694A1F7DA
S11313200590079428F4F80E491F561FC71FD11DB6
S1131330880F991F661F771F0694A1F705900794DD
S113134020F4490F561FC71FD81F990F661F771F18
S1131350881F0694A9F784911095177041F0D695CB
S1131360C79557954795F794E7941A95C1F7E0ED1B
S1131370F1E06894159015913591659195910590DA
S11313807FE27395E118F10A430B560BC90BD009A0
S1131390C0F7E10CF11E431F561FC91FD01D7EF478
S11313A0703311F48A95E6CFE894015030F0080FB9
S11313B00AF40027021708F4202F2395022F7A330A
S11313C028F079E37D932A95E9F710C07D932A9557
S11313D089F6069497956795379517951794E118AC
S11313E0F10A430B560BC90BD00998F023957E9153
S11313F073957A3308F070E37C932013B8F77E91E9
S113140070617D9330F0839571E37D9370E32A9549
S1131410E1F71124EF90FF900F911F91CF91DF918D
S1131420992787FD90950895FC01059061507040BF
S11314300110D8F7809590958E0F9F1F0895FC0199
S11314406150704001900110D8F7809590958E0FEF
S11314509F1F08950F931F93CF93DF93FB01238165
S113146021FD03C08FEF9FEF2CC022FF16C04681E1
S11314705781248135814217530744F4A081B181F7
S11314809D012F5F3F4F318320838C9326813781C9
S11314902F5F3F4F3783268314C08B01EC01FB0180
S11314A00084F185E02D1995892BE1F6D801169673
S11314B08D919C911797019617969C938E931697EE
S11314C0CE01DF91CF911F910F9108950F931F9338
S11314D0CF93DF93CDB7DEB72E970FB6F894DEBF68
S11314E00FBECDBF0E891F8986E08C831A830983C2
S11314F08FEF9FE79E838D83AE01465E5F4F688DBD
S1131500798DCE010196C2DAEF81F885E00FF11FE3
S113151010822E960FB6F894DEBF0FBECDBFDF91BA
S1131520CF911F910F910895FA01AA27283051F104
S1131530203181F1E8946F936E7F6E5F7F4F8F4F00
S11315409F4FAF4FB1E03ED0B4E03CD0670F781F5F
S1131550891F9A1FA11D680F791F8A1F911DA11D44
S11315606A0F711D811D911DA11D20D009F468947D
S11315703F912AE0269F11243019305D3193DEF625
S1131580CF010895462F4770405D4193B3E00FD0DB
S1131590C9F7F6CF462F4F70405D4A3318F0495DC6
S11315A031FD4052419302D0A9F7EACFB4E0A695A9
S11315B09795879577956795BA95C9F700976105CB
S11315C0710508959B01AC010A2E06945795479521
S11315D037952795BA95C9F7620F731F841F951F16
S10B15E0A01D0895F894FFCF4B
S11315E800000003000000004C04000000000A0D85
S11315F80A0D4D454E553A0A0D0031203D205072D2
S1131608696E74206C6F77657220616C70686162B2
S113161865740A0D0032203D205072696E7420757D
S11316287070657220616C7068616265740A0D007F
S113163833203D20426C696E6B20337820776974BF
S113164868204C454420320A0D0034203D20436C68
S1131658656172207465726D696E616C0A0D00357E
S1131668203D2047656E6572617465203220487A92
S11316780A0D002B203D20496E6372656173652055
S11316886272696768746E657373206F66204C456F
S113169844300A0D002D203D204465637265617352
S11316A865206272696768746E657373206F66205B
S11316B84C4544300A0D0074203D20526561642075
S11316C874656D70657261747572652066726F6D8C
S11316D8204932432073656E736F720A0D006C20C3
S11316E83D20476574206C6967687420696E746569
S11316F86E736974792066726F6D2070686F746F89
S11317086465746563746F720A0D0030203D20456A
S11317187869740A0D0A0D0051756974696E670059
S1131728426C696E6B696E672077697468204C45F2
S1131738442032001B5B324A0047656E657261744F
S1131748696E67203220487A004272696768746E4D
S1131758657373206F66204C4544203020696E639E
S1131768726561736564004272696768746E657353
S113177873206F66204C454420302064656372658D
S1131788617365640054656D706572617475726522
S11317982069733A20252E32660A0D00496E746555
S11317A86E736974792069733A202532640A0D00CE
S11317B8496E76616C6964206F7074696F6E004558
S11317C872726F722031380A0D004572726F72207E
S11317D832380A0D004572726F722034300A0D00D7
S11317E84572726F722035300A0D004572726F723D
S10917F82035380A0D0043
S9030000FC
