S01000004C574D5F4D5353592E7372656379
S113000016C1000034C1000032C1000030C100003C
S11300102EC100002CC100002AC1000028C100002C
S113002026C1000024C1000022C1000020C100003C
S11300301EC1000086C300001AC1000018C10000E0
S113004016C1000014C1000012C1000010C100005C
S11300500EC100000CC100000AC1000008C100006C
S113006006C1000004C1000002C1000000C100007C
S1130070FEC00000FCC00000FAC00000F8C0000090
S1130080F6C00000F4C00000F2C00000F0C00000A0
S113009083C3000065C30000EAC00000E8C000009C
S11300A0E6C00000E4C000003BC30000E0C0000064
S11300B0DEC00000DCC00000DAC00000D8C00000D0
S11300C0D6C00000D4C00000D2C00000D0C00000E0
S11300D0CEC00000CCC00000CAC00000C8C00000F0
S11300E0C6C00000C4C00000C2C00000C0C0000000
S11300F0BEC00000BCC00000BAC00000B8C0000010
S1130100B6C00000B4C00000B2C00000B0C000001F
S1130110AEC00000ACC00000AAC00000A8C000002F
S1130120A6C00000A4C00000A2C00000A0C000003F
S11301309EC0000000407A10F35A00A0724E1809C5
S11301400010A5D4E80000E87648170000E40B543A
S1130150020000CA9A3B000000E1F5050000809609
S11301609800000040420F000000A086010000003B
S1130170102700000000E8030000000064000000F5
S113018000000A00000000000100000000002C76BE
S1130190D888DC674F0823DFC1DFAE59E1B1B796D9
S11301A0E5E3E453C63AE651997696E8E6C2842636
S11301B0EB898C9B62ED407C6FFCEFBC9C9F40F212
S11301C0BAA56FA5F490055A2AF75C936B6CF9678E
S11301D06DC11BFCE0E40D47FEF520E6B500D0ED53
S11301E0902E0300943577050080841E08000020BB
S11301F04E0A000000C80C333333330F986E128359
S11302001141EF8D2114893BE65516CFFEE6DB182C
S1130210D1844B381BF77C1D901DA4BBE4242032F1
S113022084725E228100C9F124ECA1E53D271124EA
S11302301FBECFEFD1E8DEBFCDBF00E00CBF13E09F
S1130240A0E0B2E0ECE2FDE200E00BBF02C00790E8
S11302500D92AC3BB107D9F728E1ACEBB3E001C098
S11302601D92A536B207E1F7DAD00C949416C8CEE5
S1130270EAE7F0E010829081892B8083ACE7B0E05C
S11302808C918F738C938C9190E4699FB0011124AD
S1130290682B6C93808180688083EBE7F0E0808139
S11302A08823ECF7EBE7F0E0808185FFFDCF08952C
S11302B0ECE7F0E09081907F9083EBE7F0E09081B1
S11302C0977F9083883030F4ECE7F0E09081892BBD
S11302D080830BC0ECE7F0E090818850892B808309
S11302E0EBE7F0E0808188608083EAE7F0E08081DA
S11302F080648083808186FDFDCF209178003091D9
S11303007900EAE7F0E0908190619083C901089553
S1130310EAE7F0E080818F778083089510922904C2
S113032008950E94510E80E090E0089580E090E0EE
S1130330A1D280E890E0A5D28FE00E94660C81E013
S11303400E94620C60E070E085E0A2C2089580E043
S113035096E90E943C0E84E092E0909362188093A8
S11303606118089582E192E00E94590E8EE192E0B4
S11303700E94590E84E492E00E94590E89E592E0AD
S11303800E94590E8EE692E00C94590E08951F9324
S1130390CF93DF93C82FD92F80912904882331F07C
S11303A00E943E0D809129048111FACFDF93CF93EF
S11303B08BE792E09F938F931F928DE68F93CCEB04
S11303C0D3E0DF93CF930E94F410EAE2F4E081E0FB
S11303D090E09683858385E08783808711E0118789
S11303E0DE010D900020E9F71197AC5BB340AF5FDD
S11303F0A487D387C2878EE891E096878587CF014B
S11304007CD2109329048DB79EB708960FB6F89442
S11304109EBF0FBE8DBFDF91CF911F9108956F9244
S11304207F928F929F92AF92BF92CF92DF92EF9280
S1130430FF920F931F93CF93DF93CDB7DEB72E9721
S11304400FB6F894DEBF0FBECDBF0E94370D7FDF1D
S11304506DDFEE24E394F12C0F2EFCE98F2EF2E0F5
S11304609F2EF02D0F2EF6EFCF2EF7E1DF2EF02D7D
S1130470CE0101965C010F2EFEE46F2EF3E07F2E79
S1130480F02D02C0E82EF92E0E943E0D6BDF0E9473
S1130490670E813399F018F4803341F0FDC0823344
S11304A009F46AC0833309F4D0C0F6C080E892E04E
S11304B00E94590E8AE892E06ADFF2C061E080E8A7
S11304C0D7DE80E0F5DE8C0123DF1F930F939F922C
S11304D08F92DF92CF920E943011C6010E94590E72
S11304E0C801825291400F900F900F900F900F907F
S11304F00F90469740F482EB92E00E94590E83ECF1
S113050092E045DF22C0C8018C5D910986349105D3
S113051040F481ED92E00E94590E82EE92E037DFC2
S113052014C00A5A11090233110540F480EF92E015
S11305300E94590E81E093E02ADF07C08FE093E028
S11305400E94590E8AE393E022DF9FEF29E688E1B7
S1130550915020408040E1F700C0000080912904C0
S1130560882309F493C00E943E0D809129048111CF
S1130570FACF8E2D9F2D8CC061E080E879DE81E07A
S113058097DE8C01C5DEB80180E090E00E943C0F4C
S113059020E030EC4FE754E40E94D40E23E333E32D
S11305A043E550E40E94CE0F9B01AC010E94700E03
S11305B06B877C878D879E87850122E030E044E04D
S11305C050E00E947710BF92AF927F926F92DF92B9
S11305D0CF920E943011C6010E94590E0F900F90C5
S11305E00F900F900F900F9020E030E040E450E423
S11305F06B857C858D859E850E94CA0F181644F4F0
S113060085E693E0C4DE80912904811115C01AC0E7
S113061023E333E343E350E46B857C858D859E853A
S11306200E94CA0F882324F080E793E0B0DEEBCF6A
S11306308EE793E0ACDEE7CF0E943E0D8091290463
S11306408111FACF8E2D9F2D23C08FE893E00E9455
S1130650590E85EA93E09BDE80912904882331F0CA
S11306600E943E0D809129048111FACF9FEF20E76B
S113067082E0915020408040E1F700C0000086EB0A
S113068093E00E94590E8E2D9F2D02C08E2D9F2D1A
S1130690EF2809F0F7CE04C0E114F10409F0F4CE18
S11306A080E090E02E960FB6F894DEBF0FBECDBF6B
S11306B0DF91CF911F910F91FF90EF90DF90CF903A
S11306C0BF90AF909F908F907F906F90089514BECD
S11306D00FB6F894A89580916000886180936000BB
S11306E0109260000FBEE1E6F0E080E880831082A3
S11306F0789401C008951092361880E197E290939F
S1130700A9008093A800E1EAF0E088E0808380817A
S113071082608083E2E7F0E08081826080830895D4
S11307201F920F920FB60F9211248F938091361857
S11307308F5F809336188F910F900FBE0F901F908C
S113074018951F920F920FB60F9211248F9381E088
S113075080933B048F910F900FBE0F901F901895BC
S11307601F920F920FB60F9211240BB60F928F9314
S1130770EF93FF9381E080933D04E9ECF0E0808106
S11307808F7D8083FF91EF918F910F900BBE0F901F
S11307900FBE0F901F9018951F920F920FB60F92D5
S11307A011240BB60F922F933F934F935F936F9344
S11307B07F938F939F93AF93BF93EF93FF93809116
S11307C0C8002091CE008C7159F5EEE3F4E0468127
S11307D05781848195814817590711F140855185C6
S11307E082819381BC016F5F7F4F73836283DA01DF
S11307F0A80FB91F2C9322813381848195812817F6
S1130800390721F41092410410924004EEE3F4E01D
S11308108681978101969783868381E080933C0447
S1130820FF91EF91BF91AF919F918F917F916F91C4
S11308305F914F913F912F910F900BBE0F900FBE80
S11308400F901F901895E7E3F8E114821582118246
S1130850108217A216A2EDE3F8E18DE598E111925A
S11308601192E817F907D9F743D660D30DD140D0D8
S113087092C1089590933818809337180C947C0C87
S1130880089590933A18809339180C946A0C08953B
S1130890E82FF0E0EE0FFF1FE35CF74E71836083F7
S11308A008958CD321D74DC00895E0914804F09168
S11308B049043097D9F0228133818217930789F450
S11308C005C0228133812817390759F4DC01AD575B
S11308D0BF4F2C91278713962C91208B22E02483E1
S11308E005C00190F081E02D309759F711C10895AA
S11308F010924904109248040895FC01148217864A
S113090013821282A7E3B8E196968D919C919797F2
S1130910019697969C938E93969780914804909114
S11309204904009739F411821082F0934904E0934A
S11309304804089591838083F0934904E093480424
S113094008950F931F93CF93DF93E0914804F091A0
S11309504904309709F493C0EF018C81882321F076
S1130960823009F466C085C09AD08C01009721F4C6
S113097082E08C838F8783C09B838A8381E08C830E
S1130980F801E957FF4F85E594E09183808331971F
S1130990898582FB882780F980839985D8011B96F5
S11309A08C911B9790FB80F91B968C931B979985D0
S11309B093FB992790F990FB82F91B968C931B97D4
S11309C0E7E3F8E184818F5F84831C968C931C9702
S11309D0808191811E969C938E931D978D819E811B
S11309E050969C938E931F978885982F9F7051964D
S11309F08C915197807F892B51968C9351979F812D
S1130A009295907F8F70892B51968C93F801EF57B4
S1130A10FF4F4C8550E06A857B85808191810E94DF
S1130A20EB10F80191818C85890F8183C80183D5EE
S1130A3026C0EC17FD0741F480819181909349040D
S1130A40809348040AC0FC01808191818C179D0722
S1130A50D1F78881998191838083E7E3F8E186A1C6
S1130A6097A1019797A386A3ED85FE85CE011995DD
S1130A7006C00990D881C02D209709F06ECFDF9170
S1130A80CF911F910F910895EAE4F4E088E594E191
S1130A901082E757FF4FE817F907D1F708958091BF
S1130AA04A04882359F0E3EDF4E068E574E181E059
S1130AB090E0AC012081211122C002C040E050E04E
S1130AC069E8649F9001659F300D1124C901865B1C
S1130AD09B4FFC0111926A95E9F740E1FC014183C7
S1130AE0EF57FF4F245A3B4F31832083E7E3F8E16C
S1130AF026A137A12F5F3F4F37A326A30895019660
S1130B00E757FF4FE617F707A1F680E090E0089556
S1130B10FC011082E7E3F8E186A197A1019797A36E
S1130B2086A30895009741F0FC01E757FF4F84E145
S1130B30E835F80718F012C0EAE4F4E0808188236D
S1130B4021F00FC0808181110FC0E757FF4F84E16E
S1130B50E835F807B8F380E090E0089580E090E08D
S1130B6008958E2F9F2F08958E2F9F2F0895FC0197
S1130B70DC01AD57BF4F1C92A7E3B8E114969C91DA
S1130B8014979F5F14969C93149794878D919C91CE
S1130B90968785870895A9E5B4E180E090E04FEF5A
S1130BA05FEF11965C934E93FC01EE0FFF1FEE0F67
S1130BB0FF1FEE0FFF1FE81BF90BE85AFB4E2081C5
S1130BC02E7F208314961C921497019617968436D0
S1130BD0910539F708950F931F93CF93DF93E9E5B8
S1130BE0F4E120E030E0062F10E040815181481705
S1130BF05907B1F4D901AA0FBB1FAA0FBB1FAA0F33
S1130C00BB1FA21BB30BA85ABB4E4C914695417017
S1130C10C42F40E0D42FC017D10711F4CD0108C070
S1130C202F5F3F4F379624363105F9F680E090E088
S1130C30DF91CF911F910F910895A0E0B0E0E8E516
S1130C40F4E1808180FD0DC08581882381F01097B7
S1130C5039F015969C911597891718F4DF0101C096
S1130C60DF01379687E1E431F80759F7FD01808108
S1130C708D708063808380E88583CF010895FC01B3
S1130C80808180FD05C08FEF9FEF92838183158261
S1130C900895A1DF009721F0FC01838194810895D8
S1130CA08FEF9FEF089597DF009709F0E8CF08953D
S1130CB00F931F93CF93DF93FC01018512851123BA
S1130CC02CF48585968508171907E1F585819681A9
S1130CD00196C1F1EF0160E0858596857CDFFC011A
S1130CE0892BA1F08F8198850196F9F4209137180A
S1130CF0309138188F85988928173907B1F41483EF
S1130D00038380818F70806380830AC096DFFC0137
S1130D108D859E859283818389859A859483838337
S1130D20CD57DF4F888186830DC083819481081756
S1130D301907B1F39681DE01AD57BF4F8C91981717
S1130D40F0F2EECFDF91CF911F910F910895CF93E1
S1130D50DF93FC01878590898F3F2FEF9207D9F1AC
S1130D60EF01638563FB662760F935DFDC01892BBE
S1130D7091F18C9180FD2FC0FE01ED57FF4F8081D2
S1130D80811119C08C918F7080638C9315968C910E
S1130D9015978F5F15968C938F3FE9F4EDE5F4E199
S1130DA029E137E1808186958F5F80833796E2174A
S1130DB0F307C1F710C09C91892F82958F70815FD2
S1130DC08F70282F2295207F9F70922B9C938111E6
S1130DD002C0CD0154DFDF91CF910895CF93DF930B
S1130DE0FC01878590898F3F2FEF920729F48FEFBD
S1130DF09FEF908787830EC0238522FF03C09087CF
S1130E00878308C0EF01638563FB662760F941DFD0
S1130E1098878F83DF91CF910895AF92BF92CF923D
S1130E20DF92EF92FF921F93CF93DF93EC011B8528
S1130E3013FB112710F9CF84D888612FC60129DF4D
S1130E40019659F0FE01E957FF4F11821082319744
S1130E5082E08083CE016FD322C0AD84BE841FDEC6
S1130E607C010097D1F083DEF70181818A5F818361
S1130E70E957FF4F11821082F701B08AA786EF5716
S1130E80FF4F0190F081E02D81E08083B282A18246
S1130E90D482C3821583C7014ED3CE0139DEDF91DC
S1130EA0CF911F91FF90EF90DF90CF90BF90AF90C4
S1130EB00895FC012185263049F40780F085E02D52
S1130EC0658183819481EFDE81E0089580E0089557
S1130ED0DC0119962C911997222371F01796ED9144
S1130EE0FC9118972081222319F0213019F006C0B3
S1130EF0B3C30895DECF089580E0089580E0089597
S1130F00BC01E6E2F7E128E537E140E051E09081F9
S1130F10992319F091509083452F3596E217F307E2
S1130F20B1F7442311F0CB0131C60895E6E2F7E1AD
S1130F3088E597E110823596E817F907D9F7E4E1D7
S1130F40F7E184E690E0A0E0B0E086839783A08791
S1130F50B187128680E897E09487838768E677E014
S1130F6080E096CC0895CF93DF93DC01ED91FC9162
S1130F70119721812838F9F420812F7D2134D9F467
S1130F8012962C912031B8F0EC0189DD009799F08C
S1130F9020E2FC0120832A8121832B81ED57FF4F1E
S1130FA020832C81319620834A8150E068817981A5
S1130FB002960E94EB10DF91CF9108952F923F92F9
S1130FC04F925F926F927F928F929F92AF92BF9255
S1130FD0CF92DF92EF92FF920F931F93CF93DF9301
S1130FE0CDB7DEB72C970FB6F894DEBF0FBECDBFDA
S1130FF000E010E00F2EF4E2BF2EF02D0F2EF7E3E9
S1131000EF2EF8E1FF2EF02D552453946894AA2472
S1131010A4F86894772473F86894662462F8312CF1
S1131020212C0F2EFFE14F2EF02DCC24C394D12C74
S1131030DAC1D8018C91823209F405C118F48032E6
S113104041F0D1C1833209F4C9C1843209F4C9C160
S1131050CAC1F801B0828385982F9A7009F0C3C180
S1131060258136812F3F3F4F91F4D8011F968D91F2
S11310709C915097F701208131812817390719F085
S1131080019609F0B0C1E2E2D801EC93ACC1D801F9
S11310901F962D913C9150972F3F3F4F11F480FDA7
S11310A0A2C1F70120813181D8011D968D919C91B7
S11310B01E972817390709F496C1C801F9DDE2E241
S11310C0F7E180E090E0832C922C9C01448144233E
S11310D009F474C0D8011D966D917C911E974081CE
S11310E051816417750709F06AC01C968C911C978E
S11310F0F901EE0FFF1FEE0FFF1FE20FF31FEE5D6E
S1131100F84E9281981B983008F03EC0F901EE0F1A
S1131110FF1FEE0FFF1FE20FF31FEE5DF84E8381FA
S1131120482F50E0092E02C0559547950A94E2F7DE
S113113040FF17C0F7012081318117968D919C9152
S113114018972817390709F04EC11B966C911B9705
S113115063FB662760F91F968D919C915097A3DDE0
S113116042C1F901EE0FFF1FEE0FFF1F2E0F3F1FAD
S1131170F901EE5DF84E960102C0220F331F9A95D5
S1131180E2F7822B838336C1F901EE0FFF1FEE0FC6
S1131190FF1F2E0F3F1FF901EE5DF84E82838381FE
S11311A0282F30E09195A90102C0440F551F9A954C
S11311B0E2F7CA018160838344821CC14F01019616
S11311C035968A30910509F080CF8114910409F491
S11311D00AC1D8011D968D919C911E97F4019183AB
S11311E080831C968C9182835382448284E197E1AC
S11311F0CDD400C1D7012D913C91F8018785908908
S11312002817390781F0438542FD0BC0C801E1D19D
S1131210D7012D913C91F8018785908928173907CA
S113122011F0019621F4E2E2D801EC93DCC0D8017C
S113123017968D919C9118978217930709F0D3C044
S1131240E3E2EC93D0C010922117D80151968C910F
S1131250519782958F70E82FF0E0EE0FFF1FE35C4B
S1131260F74E0190F081E02D309709F460C01D968F
S11312702D913C911E973A8329831F964D915C9141
S113128050975C834B8351969C9151979F709D839B
S11312908E83AF57BF4F8D919C9199878887B801F2
S11312A06E5F7F4F861B970BD80111969C91119707
S11312B0981B9A87AD57BF4F8C918B8711968C9151
S11312C08C87D8011B969C91692F637092FD02C094
S11312D080E001C080E2862B93FD02C090E001C053
S11312E090E4892B4F3F5F4F11F090E001C0962DA1
S11312F0892BD80119964D915C911A9724173507BB
S113130011F090E001C0972D892B8F83D801159699
S11313102D913C9116972F3F3F4F11F090E001C063
S11313209A2D892B8F83CE010196199501C080E0F7
S1131330F801938590FF80E0D80117962D913C9198
S113134018972F3F3F4F69F4F70140815181D8012D
S11313501F962D913C9150974217530711F493FF18
S1131360852DF801258136812F3F3F4FA1F1D7010B
S11313702D913C912F3F3F4F71F1882361F18FDB19
S11313804C01009741F1F3DBF40181818D5F81838E
S1131390E957FF4F11821082D8011B968C911B973D
S11313A086958170F401938580FB91F993871D964E
S11313B08D919C911E97908B8787EF57FF4F0190DB
S11313C0F081E02D10828091211782831C968C91EC
S11313D08183C401B0D0D801BC9205C0C8011DDD11
S11313E002C0C80195DBC8019DDB8C01892B09F083
S11313F020CE07C0F80187819085019609F008CFB7
S1131400F9CE2C960FB6F894DEBF0FBECDBFDF9198
S1131410CF911F910F91FF90EF90DF90CF90BF90ED
S1131420AF909F908F907F906F905F904F903F9080
S11314302F900895EF92FF920F931F93CF937C0107
S113144010E080E090E001E0C3E113C0FC012081E2
S1131450213179F4EC57FF4F20813181215031093A
S113146031832083232B21F4FC01C083102F01C07E
S1131470102F58DB009751F7112311F0C70186D3C1
S1131480CF911F910F91FF90EF900895EF92FF92EB
S11314900F931F93CF93DF937C0110E080E090E0E3
S11314A001E0D7E1C0E116C0FC012081263191F4AE
S11314B0EC57FF4F20813181215031093183208342
S11314C0232B39F4FC01D083ED57FF4FC083102F39
S11314D001C0102F27DB009739F7112311F0C70142
S11314E055D3DF91CF911F910F91FF90EF90089505
S11314F010926F1710926E17E1E6F7E182E390E025
S1131500A0E0B0E086839783A087B187128686E443
S11315109AE094878387E4E5F7E18AE090E0A0E02D
S1131520B0E086839783A087B18712868AE19AE028
S1131530948783870895CF93DF93EC01FC01EA57E6
S1131540FF4F808181FF03C092E1988302C092E142
S11315509883FE01ED57FF4F108280FF05C02FEFE7
S11315603FEF3E832D8306C02091391830913A18FD
S11315703E832D83857019F4CE0130DC04C08F8541
S1131580988998878F83E7E3F8E1808191819A872E
S1131590898785818F5F85838C838F819885019668
S11315A069F481E498E89B838A8307D6CC57DF4F9C
S11315B08770992701969983888308C081E698E803
S11315C09B838A83CC57DF4F19821882DF91CF9196
S11315D008950F931F93CF93DF938C0160DAEC018E
S11315E0892BA9F182E18883F80181818983FE0135
S11315F0ED57FF4F1082E1D5FE01EC57FF4F877086
S11316009927019691838083339611821082F80181
S1131610418150E0B8016E5F7F4FCE010296DBD569
S113162081E498E89B838A838FEF9FEF98878F8369
S1131630F801858196819E838D83E7E3F8E18081BB
S113164091819A87898785818F5F85838C83DF91D8
S1131650CF911F910F910895CF93DF93FC012185C2
S11316602330D9F410C0FC012081263189F434855B
S1131670298132130DC027E120832A81EA57FF4FC5
S1131680208381E00BC0FC01C781D08580E090E01D
S113169049DA009741F780E001C080E0DF91CF9103
S11316A00895E0916E17F0916F17813021F048F0A2
S11316B0823019F004C080E205C081E203C081E0F9
S11316C001C080E0DF01AD57BF4F8C9385E180837B
S11316D010926F1710926E17E7E3F8E186A197A1B5
S11316E0019797A386A308959F92AF92BF92CF923A
S11316F0DF92EF92FF920F931F93CF93DF93C0E09B
S1131700D0E00F2EF4E1AF2EF02D07E318E10F2EF9
S1131710F7E1DF2EF02D0F2EF6E19F2EF02D0F2E88
S1131720F9E2EF2EF12CF02D0F2EF3E1CF2EF02D58
S11317300F2EF1E1BF2EF02D60C088818331C1F0FE
S113174018F4823139F059C0853149F1873109F4EF
S113175045C053C0FE01EC57FF4F80819181892B16
S113176029F0B88284E597E111D247C0C88245C008
S113177080916E1790916F17892B09F03EC0D0931A
S11317806F17C0936E17A8826981CE010296CBD0E1
S1131790F80186A197A1019697A386A32EC0FE0106
S11317A0ED57FF4F8081811117C02D853E85F801CB
S11317B0808191812817390769F48B8580FF0AC0DD
S11317C09882FE01EC57FF4FF182E08281E697E1B7
S11317D0DDD113C0D88211C0D8820FC0CE01B7DAD0
S11317E0FE01E957FF4F0190F081E02D309719F485
S11317F0CE018ED902C0CE011995CE0193D9EC0148
S1131800892B09F09ACFDF91CF911F910F91FF900F
S1131810EF90DF90CF90BF90AF909F90089580910C
S11318207017982F9F70E4E5F1E08081807F892B09
S1131830808380917017882329F080917117809399
S11318405301089580917117982F9F71E8E4F1E096
S11318508081807E892B8083089593E09093420158
S1131860E1E4F1E090819F719830E1F780934201C7
S1131870E1E4F1E090819F718913FCCF089588E041
S1131880ECDF8FEF80934F0180917217882311F062
S113189086E1E3CF0895E9E3F1E08081816080830C
S11318A0109272171092701781E08093F31788E0FA
S11318B0D4DF8BEE80935601ECE4F1E08081806804
S11318C08083089580937217DACF089580937117F7
S11318D0A6CF0895CF93DF931F921F92CDB7DEB7A3
S11318E09A838983809362018A81809363010F9034
S11318F00F90DF91CF910895CF93DF931F921F92A2
S1131900CDB7DEB79A838983809360018A818093FF
S1131910610199818A81890F80936D010F900F90E5
S1131920DF91CF9108951F93CF93DF93182FD92F71
S1131930C62F89E192DF8FEF80934F0182E08C0FF5
S113194080938001CC2371F0A12FBD2FC1506C2F47
S113195070E06E577E4FE1E8F1E08D918193E617D8
S1131960F707D9F783E08093F31782E0809342016D
S1131970DF91CF911F9108951F93CF93DF9300D0F0
S11319801F921F92CDB7DEB78091F317823009F40E
S113199065C080914F0183FF3EC0A0917B016A2FF7
S11319A070E0AB014F5F5F4F80E090E020E0FC010E
S11319B0E058FE4F3081FC01ED58F84E30832F5F24
S11319C0822F90E08417950794F383E797E19A8335
S11319D08983A250AB83FB01ED58F84E80818C8340
S11319E0809147018A558D83CE010196BCDAE1E4EA
S11319F0F1E080818F718631E1F7EFE4F1E08081DD
S1131A0088608083ECE4F1E080818F77808380813B
S1131A108068808323C080914F0186FF1FC080911E
S1131A2041018F718931A9F41091420112951695E3
S1131A30177049F0133021F0153021F013E003C082
S1131A4011E001C012E01BDF81E08093F317812FC6
S1131A5028DEEFE4F1E08081806480830F900F90B2
S1131A600F900F900F90DF91CF911F9108950E94D6
S1131A7067036DD010DF0C94230408957DDF0E946A
S1131A8051048FC008950F931F93CF93DF93EC01FC
S1131A908091F4179091F517009709F445C04E8191
S1131AA05F8168857985FC010281138124813581F8
S1131AB0401751076207730760F0DC0117C0028109
S1131AC0138124813581401751076207730768F435
S1131AD003C0FC01A0E0B0E0041B150B260B370B80
S1131AE002831383248335830AC0DF01401B510B17
S1131AF0620B730BED91FC911197309701F74A83B8
S1131B005B836C837D83109741F08D919C91119739
S1131B1099838883CD93DC9315C099838883D0936C
S1131B20F517C093F4170EC0198218828E819F8115
S1131B30A885B9858A839B83AC83BD83D093F5172D
S1131B40C093F417DF91CF911F910F9108951092D4
S1131B50F5171092F4170895E091F417F091F51722
S1131B60309771F0E817F90721F40CC08E179F071E
S1131B7059F00190F081E02D3097C1F780E008958D
S1131B8080E0089581E0089581E00895CF93DF9384
S1131B90EC01E2DF811102C0CE0175DFDF91CF914C
S1131BA00895CF92DF92EF92FF92CF93DF938091CB
S1131BB03618882309F459C08FB7F894C0903618A2
S1131BC0109236188FBFD12CE12CF12CCC0CDD1CDB
S1131BD0EE1CFF1CD701C601880F991FAA1FBB1F4B
S1131BE0880F991FAA1FBB1FC80ED91EEA1EFB1E11
S1131BF0C091F417D091F5172097B9F18A819B8190
S1131C00AC81BD81C816D906EA06FB0610F1C81AD4
S1131C10D90AEA0AFB0A888199819093F51780937F
S1131C20F4178A85813011F4CE012DDFEB85FC8514
S1131C30CE011995C091F417D091F5172097A9F00A
S1131C408A819B81AC81BD81C816D906EA06FB0650
S1131C50F0F68A819B81AC81BD818C199D09AE0906
S1131C60BF098A839B83AC83BD83DF91CF91FF90AF
S1131C70EF90DF90CF9008959C0140E050E060E247
S1131C8071EA87E090E011D2215031093093CD0000
S1131C902093CC0088E18093C90086E08093CA0039
S1131CA00895E8ECF0E0908195FFFDCF8093CE009D
S1131CB00895CF93DF93EC018881882329F021963E
S1131CC0F0DF89918111FCCFDF91CF910895E8EC89
S1131CD0F0E080818823ECF78091CE00089550587D
S1131CE0BB27AA270ED01CC10DD130F012D120F091
S1131CF031F49F3F11F41EF402C10EF4E095E7FBAA
S1131D00F8C0E92F1ED180F3BA176207730784075E
S1131D10950718F071F49EF536C10EF4E0950B2E7C
S1131D20BA2FA02D0B01B90190010C01CA01A00129
S1131D301124FF27591B99F0593F50F4503E68F184
S1131D401A16F040A22F232F342F4427585FF3CFC5
S1131D50469537952795A795F0405395C9F77EF496
S1131D601F16BA0B620B730B840BBAF09150A1F0DF
S1131D70FF0FBB1F661F771F881FC2F70EC0BA0F65
S1131D80621F731F841F48F4879577956795B795ED
S1131D90F7959E3F08F0B3CF9395880F08F09927E5
S1131DA0EE0F9795879508950CD0BAC0B2D040F045
S1131DB0A9D030F021F45F3F19F09BC05111E4C069
S1131DC09EC0BFD098F39923C9F35523B1F3951B53
S1131DD0550BBB27AA2762177307840738F09F5F48
S1131DE05F4F220F331F441FAA1FA9F333D00E2EB7
S1131DF03AF0E0E830D091505040E695001CCAF724
S1131E0029D0FE2F27D0660F771F881FBB1F2617E8
S1131E1037074807AB07B0E809F0BB0B802DBF01BB
S1131E20FF2793585F4F2AF09E3F510568F061C029
S1131E30ABC05F3FECF3983EDCF3869577956795EE
S1131E40B795F7959F5FC9F7880F911D969587956C
S1131E5097F90895E1E0660F771F881FBB1F62178B
S1131E6073078407BA0720F0621B730B840BBA0B49
S1131E70EE1F88F7E0950895E89409C097FB3EF4B7
S1131E8090958095709561957F4F8F4F9F4F9923C3
S1131E90A9F0F92F96E9BB279395F6958795779541
S1131EA06795B795F111F8CFFAF4BB0F11F460FF01
S1131EB01BC06F5F7F4F8F4F9F4F16C0882311F059
S1131EC096E911C0772321F09EE8872F762F05C06D
S1131ED0662371F096E8862F70E060E02AF09A9508
S1131EE0660F771F881FDAF7880F9695879597F9FD
S1131EF0089597F99F6780E870E060E008959FEF88
S1131F0080EC089500240A9416161706180609068C
S1131F10089500240A94121613061406050608955B
S1131F20092E0394000C11F4882352F0BB0F40F4E3
S1131F30BF2B11F460FF04C06F5F7F4F8F4F9F4F23
S1131F40089557FD9058440F551F59F05F3F71F0A5
S1131F504795880F97FB991F61F09F3F79F087950C
S1131F600895121613061406551FF2CF4695F1DF95
S1131F7008C0161617061806991FF1CF8695710525
S1131F80610508940895E894BB2766277727CB0159
S1131F9097F9089566D008F48FEF08950BD0C0CF59
S1131FA0B1DF28F0B6DF18F0952309F0A2CFA7CF50
S1131FB01124EACFC6DFA0F3959FD1F3950F50E02B
S1131FC0551F629FF001729FBB27F00DB11D639FE7
S1131FD0AA27F00DB11DAA1F649F6627B00DA11D8D
S1131FE0661F829F2227B00DA11D621F739FB00D33
S1131FF0A11D621F839FA00D611D221F749F3327A3
S1132000A00D611D231F849F600D211D822F762F3B
S11320106A2F11249F5750408AF0E1F088234AF038
S1132020EE0FFF1FBB1F661F771F881F9150504084
S1132030A9F79E3F510570F05CCFA6CF5F3FECF34C
S1132040983EDCF3869577956795B795F795E79570
S11320509F5FC1F7FE2B880F911D9695879597F981
S11320600895990F0008550FAA0BE0E8FEEF161625
S11320701706E807F907C0F012161306E407F50778
S113208098F0621B730B840B950B39F40A2661F0EC
S1132090232B242B252B21F408950A2609F4A1408F
S11320A0A6958FEF811D811D0895A1E21A2EAA1B0A
S11320B0BB1BFD010DC0AA1FBB1FEE1FFF1FA217F4
S11320C0B307E407F50720F0A21BB30BE40BF50BF1
S11320D0661F771F881F991F1A9469F7609570957A
S11320E0809590959B01AC01BD01CF010895EF92BD
S11320F00F931F93CF93DF93E80147FD02C034E0B1
S113210001C034E1042E000C550B57FF03C0519558
S113211041955109E32E022F242FAE01CCD2CE01DA
S1132120DF91CF911F910F91EF9008958F929F921D
S1132130AF92BF92CF92DF92EF92FF92CF93DF9351
S1132140EC01688179818A819B8161157105810522
S1132150910521F464E279ED8BE597E02DE133EF0D
S113216041E050E0A6D549015A019B01AC01A7EA20
S1132170B1E4BBD56B017C01ACEEB4EFA5019401D5
S1132180C0D5DC01CB018C0D9D1DAE1DBF1DB7FF5D
S113219003C00197A109B04888839983AA83BB83AC
S11321A09F77DF91CF91FF90EF90DF90CF90BF901A
S11321B0AF909F908F900895B9CF80E092E0B6CF12
S11321C0A0E0B0E08093000290930102A093020289
S11321D0B09303020895FB01DC0102C001900D924B
S11321E041505040D8F708950F931F93CF93DF9336
S11321F0CDB7DEB72E970FB6F894DEBF0FBECDBFB6
S11322000E891F89888D998D26E02C831A83098372
S113221097FF02C080E090E801979E838D83AE0112
S1132220445E5F4F6A8D7B8DCE01019647D04D8110
S11322305E8157FD0AC02F813885421753070CF47D
S11322409A01F801E20FF31F10822E960FB6F8944C
S1132250DEBF0FBECDBFDF91CF911F910F910895C7
S11322600F931F93CF93DF93CDB7DEB72E970FB69F
S1132270F894DEBF0FBECDBF0E891F8986E08C8324
S11322801A8309838FEF9FE79E838D83AE01465E99
S11322905F4F688D798DCE01019610D0EF81F8855E
S11322A0E00FF11F10822E960FB6F894DEBF0FBE1A
S11322B0CDBFDF91CF911F910F9108952F923F923F
S11322C04F925F926F927F928F929F92AF92BF9242
S11322D0CF92DF92EF92FF920F931F93CF93DF93EE
S11322E0CDB7DEB72B970FB6F894DEBF0FBECDBFC8
S11322F06C017B018A01FC0117821682838181FFB4
S1132300BFC1CE0101963C01F6019381F70193FD13
S1132310859193FF81917F01882309F4ADC18532B2
S113232039F493FD859193FF81917F01853221F4E6
S1132330B60190E024D4E8CF912C212C312CFFE17C
S1132340F315D8F08B3279F038F4803279F0833297
S1132350A1F4232D20611DC08D3261F0803369F416
S1132360232D216016C0832D8260382EE32DE46076
S11323703E2E2AC0F32DF8601DC037FC2DC020ED81
S1132380280F2A3040F08E32B9F436FC75C1232D63
S11323902064322E19C036FE06C08AE0989E200DB5
S11323A01124922E11C0EAE02E9E200D1124222E1B
S11323B0F32DF0623F2E08C08C3621F4832D806803
S11323C0382E02C0883641F4F70193FD859193FFBE
S11323D081917F018111B3CF982F9F7D95549330C4
S11323E028F40C5F1F4F9FE399830DC0833631F0AF
S11323F0833771F0833509F055C020C0F80180811E
S113240089830E5F1F4F88248394912C530112C03B
S11324102801F2E04F0E511CF801A080B18036FE75
S113242003C0692D70E002C06FEF7FEFC5019CD33C
S11324304C018201F32DFF773F2E15C0280122E0C5
S1132440420E511CF801A080B18036FE03C0692DF4
S113245070E002C06FEF7FEFC5017BD34C01F32D19
S1132460F0683F2E820133FC19C0822D90E088165B
S11324709906A0F4B60180E290E081D32A94F5CFC6
S1132480F50137FC859137FE81915F01B60190E03B
S113249076D321102A9421E0821A910881149104A0
S11324A079F7E1C0843611F0893639F5F80137FE41
S11324B007C060817181828193810C5F1F4F08C0C6
S11324C060817181072E000C880B990B0E5F1F4FE2
S11324D0F32DFF763F2E97FF09C090958095709558
S11324E061957F4F8F4F9F4FF0683F2E2AE030E079
S11324F0A30181D3882E861844C0853731F4232D57
S11325002F7EB22E2AE030E025C0932D997FB92E7C
S11325108F36C1F018F4883579F0AEC0803719F0E1
S1132520883721F0A9C0E92FE061BE2EB4FE0DC0AA
S1132530FB2DF460BF2E09C034FE0AC0292F26608B
S1132540B22E06C028E030E005C020E130E002C031
S113255020E132E0F801B7FE07C060817181828119
S113256093810C5F1F4F06C06081718180E090E011
S11325700E5F1F4FA3013FD3882E8618FB2DFF77D4
S11325803F2E36FE0DC0232D2E7FA22E891458F423
S113259034FE0BC032FC09C0832D8E7EA82E05C0EC
S11325A0B82CA32C03C0B82C01C0B92CA4FE0FC0B6
S11325B0FE01E80DF11D8081803321F49A2D997E6E
S11325C0A92E09C0A2FE06C0B394B39404C08A2DF8
S11325D0867809F0B394A3FC10C0A0FE06C0B21420
S11325E080F4280C922C9B180DC0B21458F4B60138
S11325F080E290E0C4D2B394F8CFB21418F42B184C
S113260002C0982C212CA4FE0FC0B60180E390E0F8
S1132610B6D2A2FE16C0A1FC03C088E790E002C0B7
S113262088E590E0B6010CC08A2D867851F0A1FEB1
S113263002C08BE201C080E2A7FC8DE2B60190E00B
S11326409ED2891430F4B60180E390E098D29A9433
S1132650F8CF8A94F301E80DF11D8081B60190E072
S11326608ED28110F6CF222009F44ECEB60180E23C
S113267090E085D22A94F7CFF6018681978102C033
S11326808FEF9FEF2B960FB6F894DEBF0FBECDBF32
S1132690DF91CF911F910F91FF90EF90DF90CF903A
S11326A0BF90AF909F908F907F906F905F904F906E
S11326B03F902F9008958F929F92AF92BF92CF92A6
S11326C0DF92EF92FF920F931F93CF93DF93CDB7D7
S11326D0DEB729970FB6F894DEBF0FBECDBF6A01EF
S11326E0122FB02E2BE3201720F0FF24F394F00ECA
S11326F002C02CE3F22E0F2D27E0AE014F5F5F4F97
S113270050D1BC014981842F8970813031F0E1FCC2
S113271006C0E0FE06C090E205C09DE203C09BE255
S113272001C090E05E2D507143FF3CC0911102C086
S113273083E001C084E0811718F4212F281B01C015
S113274020E051110BC0F601822F30E2882319F0EA
S113275031938150FBCFC20ED11C20E0992329F084
S1132760D6019C93F60131966F01C6010396E2FEF1
S11327700AC03EE4D6013C9341E411964C93119770
S113278012963C9306C03EE6F601308341E641834F
S11327903283FC01322F40E2332309F442C04193D7
S11327A03150FACF42FF44C0911102C083E001C00E
S11327B084E0811718F4212F281B01C020E0511157
S11327C00BC0F601822F30E2882319F03193815037
S11327D0FBCFC20ED11C20E0992329F0D6019C9393
S11327E0F60131966F01C6010396E2FE0BC039E48F
S11327F0D6013C933EE411963C93119736E412962D
S11328003C9307C039E6F60130833EE6318336E671
S11328103283FC01322F40E2332319F041933150CB
S1132820FBCFFC01E20FF11D10828EEF9FEFA6C0DB
S113283021E030E0911102C020E030E016161706C6
S11328401CF4FB01319602C0E1E0F0E02E0F3F1FC3
S1132850BB2021F0EB2DF0E0319602C0E0E0F0E087
S11328602E0F3F1FE12FF0E02E173F071CF4121B21
S1132870212F01C020E08E2D887159F4F601822F9A
S113288030E2882319F031938150FBCFC20ED11C62
S113289020E0992329F0D6019C93F60131966F012B
S11328A051110BC0F601822F90E3882319F0919304
S11328B08150FBCFC20ED11C20E00F2D060F9A8150
S11328C0342F307144FF03C0913309F401501016C2
S11328D024F4093018F008E001C001E0AB0177FFEF
S11328E002C040E050E0FB01E41BF50BA1E0B0E0C6
S11328F0AC0FBD1FEA0FFB1F8EE2A82E4B01801AFE
S113290091080B2D10E01195019511094F3FBFEF70
S11329105B0721F4D601AC9211966D01641775071B
S11329202CF08416950614F4818101C080E3415093
S113293051093196D60111967D014017510724F0B3
S1132940D6018C936701E2CF6417750739F4963387
S113295020F4953319F4311101C081E3F601808329
S1132960F701822F90E2882319F091938150FBCFD5
S1132970F701E20FF11D108280E090E029960FB676
S1132980F894DEBF0FBECDBFDF91CF911F910F91A1
S1132990FF90EF90DF90CF90BF90AF909F908F907B
S11329A00895283008F027E03327DA01990F311D04
S11329B087FD916000966105710539F432602E5FE0
S11329C03D9330E32A95E1F708959F3F30F0803836
S11329D07105610509F03C5F3C5F3D93913008F05F
S11329E08068911DDF93CF931F930F93FF92EF9213
S11329F0192F987F9695E92F96959695E90FFF27BD
S1132A00E257FE4F99273327EE24FF24A701E7015D
S1132A1005900894079428F4360FE71EF81E491F02
S1132A20511D660F771F881F991F0694A1F7059003
S1132A30079428F4E70EF81E491F561FC11D770F8F
S1132A40881F991F661F0694A1F70590079428F420
S1132A50F80E491F561FC71FD11D880F991F661FE7
S1132A60771F0694A1F70590079420F4490F561F89
S1132A70C71FD81F990F661F771F881F0694A9F7D1
S1132A8084911095177041F0D695C7955795479541
S1132A90F794E7941A95C1F7E4E3F1E0689415908C
S1132AA0159135916591959105907FE27395E118A3
S1132AB0F10A430B560BC90BD009C0F7E10CF11E08
S1132AC0431F561FC91FD01D7EF4703311F48A951D
S1132AD0E6CFE894015030F0080F0AF400270217FB
S1132AE008F4202F2395022F7A3328F079E37D937D
S1132AF02A95E9F710C07D932A9589F6069497954F
S1132B006795379517951794E118F10A430B560BFF
S1132B10C90BD00998F023957E9173957A3308F008
S1132B2070E37C932013B8F77E9170617D9330F04D
S1132B30839571E37D9370E32A95E1F71124EF9077
S1132B40FF900F911F91CF91DF91992787FD909569
S1132B500895FC010590615070400110D8F78095EC
S1132B6090958E0F9F1F0895FC0161507040019055
S1132B700110D8F7809590958E0F9F1F08950F939D
S1132B801F93CF93DF93FB01238121FD03C08FEFBC
S1132B909FEF2CC022FF16C04681578124813581C6
S1132BA04217530744F4A081B1819D012F5F3F4F29
S1132BB0318320838C93268137812F5F3F4F378366
S1132BC0268314C08B01EC01FB010084F185E02D08
S1132BD01995892BE1F6D80116968D919C9117973A
S1132BE0019617969C938E931697CE01DF91CF9101
S1132BF01F910F910895FA01AA27283051F120312D
S1132C0081F1E8946F936E7F6E5F7F4F8F4F9F4F7C
S1132C10AF4FB1E03ED0B4E03CD0670F781F891FBE
S1132C209A1FA11D680F791F8A1F911DA11D6A0F8C
S1132C30711D811D911DA11D20D009F468943F913F
S1132C402AE0269F11243019305D3193DEF6CF013E
S1132C500895462F4770405D4193B3E00FD0C9F704
S1132C60F6CF462F4F70405D4A3318F0495D31FD71
S1132C704052419302D0A9F7EACFB4E0A6959795C4
S1132C80879577956795BA95C9F70097610571059A
S1132C9008959B01AC010A2E0694579547953795E4
S1132CA02795BA95C9F7620F731F841F951FA01D3E
S1132CB00895052E97FB16F400940FD057FD05D008
S1132CC0F4D907FC02D046F408C0509540953095DD
S1132CD021953F4F4F4F5F4F089590958095709584
S1132CE061957F4F8F4F9F4F08950FD0A59F900DF3
S1132CF0B49F900DA49F800D911D11240895B7FFDA
S1132D00F4CFF3DF821B930B0895A29FB001B39F0E
S1132D10C001A39F700D811D1124911DB29F700DE0
S10F2D20811D1124911D0895F894FFCF2B
S1132D2C01000000000000030000000091010000FD
S1132D3C00000A0D0A0D4D454E553A0A0D0031207E
S1132D4C3D20526561642076616C75652066726FF6
S1132D5C6D204D6F6973747572652073656E736F36
S1132D6C720A0D0032203D20426174746572792020
S1132D7C7374617475730A0D0033203D20436C65C4
S1132D8C6172207465726D696E616C0A0D0030207D
S1132D9C3D20457869740A0D0A0D0025730D0A004F
S1132DAC51756974696E670D0A00556B6F6E6365B6
S1132DBC6E692070726F6772616D75004D6F697307
S1132DCC74757265202841444330293A2025750DC9
S1132DDC0A0050756461206A652073756368612EFE
S1132DEC0D0A0050756461206A652073756368610F
S1132DFC0050756461206A6520766C686B612E0DD9
S1132E0C0A0050756461206A6520766C686B6100F9
S1132E1C50756461206A65206D6F6B72612E0D0AAA
S1132E2C0050756461206A65206D6F6B7261004897
S1132E3C6F646E6F7461206D696D6F20726F7A733D
S1132E4C6168202D207A6B6F6E74726F6C756A20BA
S1132E5C73656E7A6F722E0D0A00566C686B6F7305
S1132E6C74206D696D6F20726F7A736168004E61A6
S1132E7C7065746920626174657269653A202573A2
S1132E8C20560D0A0042617465726965204F4B002F
S1132E9C4261746572696520534C41424100426140
S1132EAC7465726965204B52495449434B41005433
S1132EBC65726D696E616C2076796D617A616E2EC6
S1132ECC2E2E0D0A005465726D696E616C20767934
S10F2EDC6D617A616E001B5B324A0000DD
S9030000FC
